:100000000C947D000C94C9030C942F030C94C90329
:100010000C94C9030C94C9030C94C9030C94C90330
:100020000C94C9030C94C9030C94C9030C94C90320
:100030000C94C9030C94C9030C94C9030C94C90310
:100040000C9432020C9462020C94C9030C94C90300
:100050000C94C9030C94C9030C94C9030C94C903F0
:100060000C94C9030C9420030C94C9030C94C90389
:100070000C94C9030C94C9030C94C9030C94C903D0
:100080000C94C9030C94C9030C94C9030C94C903C0
:100090000C94C9030C94C9030C94C9030C94C903B0
:1000A0000C94C9030C94C9030C94C9030C94C903A0
:1000B0000C94C9030C9492020C94C9030C94C903C8
:1000C0000C94C9030C94C9030C94C9030C94C90380
:1000D0000C94C9030C94C9030C94C9030C94C90370
:1000E0000C94C9030C94C9030C94C9030C94C90360
:1000F0000C94C90340004006800011241FBECFEFBE
:10010000CDBFDFE7DEBFE4EFF0E040E019C0B7911C
:10011000A79137912791079107FD0EC0979187917D
:10012000EF01F92FE82F0BBF07900D92A217B3072D
:10013000D9F7FE011BBE04C01D92A217B307E1F759
:10014000E93FF40721F70E9470030C94A700F8948C
:02015000FFCFDF
:100152000F931F93CF93DF930E94950140E054E0E9
:1001620080E8FA01808320E234E0F901108280E421
:1001720094E0FC011082C0E6D4E01882A0E8B4E06A
:100182001C9200EA14E061E0F8016083FA01148233
:10019200F9011482FC0114821C8214961C92149799
:1001A200F8011482FA01108A118A128A138A148AB7
:1001B200158A168A178AF901108A118A6BE0628BF6
:1001C200138A148A158A168A178AFC01108A118AE0
:1001D200128A138A148A158A168A178A188A64E080
:1001E200698B6A8B6B8B6C8B6D8B1E8A6F8B5096B7
:1001F2001C92509751966C93519752966C935297CA
:1002020053966C93539754961C92549755961C92FE
:10021200559756961C92569757961C925797F801E7
:10022200108A118A128A138A148A158A168A178AE0
:10023200FA011386168615861486F9011386168628
:1002420015861486FC0113861686158614861B866F
:100252001E861D861C861B961C921B971E961C9240
:100262001E971D961C921D971C961C92F8011386D0
:10027200168615861486E0EEF5E01186118210824C
:1002820014821682178282E080871582128213827C
:1002920012868BEC93E08093004090930140DF91B3
:0802A200CF911F910F91089507
:1002AA00FF920F931F93CF93DF93E0E2F4E088E08D
:1002BA008183868380E3809386062FEF8EE994E21A
:1002CA00215080409040E1F700C00000CCE4D4E027
:1002DA0000E816E0FF24F394C55BDF4FCE010E94CD
:1002EA000B03F8018583FFEF20E782E0F1502040FD
:1002FA008040E1F700C00000F801878180FD07C057
:10030A0088E08093250481E08093870603C0F80182
:10031A00F782E2CFDF91CF911F910F91FF9008955D
:10032A00E0E9F4E0808188608193E83984E0F807A5
:10033A00C9F7E0EBF4E0808188608193E83B84E0D0
:10034A00F807C9F7E0E1F4E0808188608193E83139
:10035A0084E0F807C9F7E0E3F4E0808188608193DC
:10036A00E83384E0F807C9F7E0E5F4E080818860C3
:10037A008193E83584E0F807C9F7E0E7F4E0808183
:0E038A0088608193E83784E0F807C9F708958A
:10039800CF93DF93C0E8DBE089EE93E08AA79BA7C1
:1003A80018A619A688EE93E08EA79FA71CA61DA6DF
:1003B80019821A828FEB8B831C821E8E188E198EDF
:1003C8001C8A1D8A81E18887198640E168ED82E9E7
:1003D8009BE00E94BC0386E0888B198A1C86E0E8B3
:1003E800FBE0868580FFFDCFE0E8FBE01686108203
:0803F80080E0DF91CF91089530
:1004000040E068ED88E790E00E94BC0340E068EDC2
:100410008CE790E00E94BC0340E168ED81E690E04B
:100420000E94BC0340E068ED82E690E00E94BC03BD
:1004300040E068ED83E690E00E94BC0340E068ED98
:1004400080E690E00E94BC0340E068ED85E690E025
:100450000E94BC034CE068ED88E690E00E94BC037B
:0404600080E008959B
:100464001F920F920FB60F9211240BB60F922F9377
:100474003F934F935F936F937F938F939F93AF9328
:10048400BF93EF93FF9381E080938D0BE091024043
:10049400F0910340309709F00995FF91EF91BF91D6
:1004A400AF919F918F917F916F915F914F913F9108
:1004B4002F910F900BBE0F900FBE0F901F901895A9
:1004C4001F920F920FB60F9211240BB60F922F9317
:1004D4003F934F935F936F937F938F939F93AF93C8
:1004E400BF93EF93FF9384E080938D0BE0910440DE
:1004F400F0910540309709F00995FF91EF91BF9174
:10050400AF919F918F917F916F915F914F913F91A7
:100514002F910F900BBE0F900FBE0F901F90189548
:100524001F920F920FB60F9211240BB60F922F93B6
:100534003F934F935F936F937F938F939F93AF9367
:10054400BF93EF93FF933A9B05C0E0910040F09175
:10055400014009958FEF87B9FF91EF91BF91AF915A
:100564009F918F917F916F915F914F913F912F91C7
:0E0574000F900BBE0F900FBE0F901F901895AA
:100582000E94B603E0E0F7E083E0828381E08183AA
:100592001786138A128A82E0808B8FE7848B90E120
:1005A200938F95EF928F95E0908F848F25E123A30F
:0E05B20025EB22A390A384A30E94B00308951A
:1005C000E0ECF1E084E0818386E0818782E083874C
:1005D00091E4908798E0909301048093220293E045
:0C05E0009587878781E0848780830895D9
:1005EC000E94A9000E9464030E94A8030E940002BA
:1005FC000E94A0030E94C1020E9498030E9458030B
:0A060C000E94CC010E943E030895F5
:10061600CF93DF931F92CDB7DEB7A0E0B0E068942A
:1006260013F8B695A795979587951694D1F789836C
:0A06360089810F90DF91CF910895A4
:100640001F920F920FB60F9211248F9381E0809327
:0E06500087068F910F900FBE0F901F90189588
:10065E001F920F920FB60F9211248F9381E0809309
:0E066E00AA008F910F900FBE0F901F9018954D
:10067C0040E068ED80E191E00E94BC03E0E1F1E034
:0A068C0012821382789480E0089532
:1006960081E380938606E0E0F2E082E0808380E1F9
:0A06A600808B81E0809348020895E4
:1006B000E0E8F6E0118282E18583168283E182839D
:0806C00081E4808380E00895CD
:1006C80040E068ED80EA90E00E94BC03E0EAF0E0D8
:0806D8001186108680E00895F0
:1006E0000E94F6020E94E0020E948F03789486EC3A
:0806F00093E00E94C103FFCF5B
:1006F800E0E8F6E086818E7F8683109210021092E1
:040708004802089506
:10070C0081E08093800BE0E8FBE0868580FFFDCFE5
:02071C0008953E
:10071E000E947C030E9486030E9455010E944B0397
:02072E0008952C
:10073000E0EBF0E082E084831082128280E0089592
:1007400040E068ED80E590E00E94BC0380E0089501
:1007500040E068ED80E091E00E94BC0380E00895F5
:0C076000E0E0F7E0808181608083089574
:0C076C00E0E0F7E080818E7F808308953C
:0A0778001BBEFC0164BF408308951E
:0A0782008093004090930140089519
:06078C000E948F03089596
:040792000C940000C3
:020796000895C4
:02000004008278
:090000000000000000C00800002F
:00000001FF
